:100000000C94FC000C9486010C9419010C941901B9
:100010000C9419010C9419010C941B010C941901F6
:100020000C9419010C9419010C9419010C941901E8
:100030000C9419010C948D010C9419010C94190164
:100040000C9419010C9419010C9419010C941901C8
:100050000C9419010C9419010C9419010C941901B8
:100060000C9419010C9419010C9419010C941901A8
:100070000C9419010C9419010C9419010763423670
:10008000B79BD8A71A39685618AEBAAB558C1D3C29
:10009000B7CC5763BD6DEDFD753EF6177231BF00ED
:1000A0000000803F08000000BE922449123EABAA27
:1000B000AA2ABECDCCCC4C3E00000080BEABAAAA82
:1000C000AA3E00000000BF000000803F00000000CA
:1000D00000084178D3BB4387D1133D190E3CC3BD03
:1000E0004282AD2B3E68EC8276BED98FE1A93E4CB0
:1000F00080EFFFBE01C4FF7F3F0000000000004012
:100100007A10F35A00A0724E18090010A5D4E80026
:1001100000E87648170000E40B54020000CA9A3B3E
:10012000000000E1F50500008096980000004042C4
:100130000F000000A0860100000010270000000052
:10014000E803000000006400000000000A00000056
:1001500000000100000000002C76D888DC674F0802
:1001600023DFC1DFAE59E1B1B796E5E3E453C63A08
:10017000E651997696E8E6C28426EB898C9B62ED7F
:10018000407C6FFCEFBC9C9F40F2BAA56FA5F49039
:10019000055A2AF75C936B6CF9676DC11BFCE0E4B0
:1001A0000D47FEF520E6B500D0ED902E0300943506
:1001B00077050080841E080000204E0A000000C859
:1001C0000C333333330F986E12831141EF8D2114AA
:1001D000893BE65516CFFEE6DB18D1844B381BF77A
:1001E0007C1D901DA4BBE424203284725E22810019
:1001F000C9F124ECA1E53D2711241FBECFEFD8E0C3
:10020000DEBFCDBF11E0A0E0B1E0ECE9FAE102C051
:1002100005900D92A832B107D9F721E0A8E2B1E02C
:1002200001C01D92AC32B207E1F70E942B060C947C
:100230004C0D0C9400001F920F920FB60F921124D8
:100240000F931F932F933F934F935F936F937F93DE
:100250008F939F93AF93BF93EF93FF93CF93DF93CE
:10026000CDB7DEB7A697DEBFCDBF8BE0E1E0F1E012
:10027000DE015C9601900D928A95E1F72BE1ECE0AE
:10028000F1E0CE010196DC0101900D922A95E1F793
:100290008C01329B1EC00E94D002379B1AC0379936
:1002A000FECF8091000191E089278093000141E019
:1002B0006BE0CE014C960E94150283E20E94070279
:1002C00041E06BE1C8010E9415020E94CC020E942D
:1002D000BF020E94D402A6960FB6F894DEBF0FBEEE
:1002E000CDBFDF91CF91FF91EF91BF91AF919F91E2
:1002F0008F917F916F915F914F913F912F911F91BE
:100300000F910F900FBE0F901F9018958F9381E063
:1003100080932A01E09A8F9118958F9381E08093C2
:100320002B018F9118958FEF81B9099884B9219885
:1003300093EE97B990EE98B98AB9529808954FEF15
:100340004AB9909389008093880070938B006093E2
:100350008A0081EA8093800082E480938100109279
:1003600082000895BF92CF92DF92EF92FF920F9397
:100370001F93CF93DF930F92CDB7DEB7B82E062F22
:10038000CE0101966C010E94930260E0C6010E94BA
:100390009C027C01F694E794F694E79410E0BE1476
:1003A0001F0479F070F060E470E080E490E00E9457
:1003B0009F01E016F10670F06FEB70E08FEB90E0BC
:1003C00007C0E016F106C0F760E870E080E890E052
:1003D0000E949F01C6010E9499020F90DF91CF9168
:1003E0001F910F91FF90EF90DF90CF90BF900895F5
:1003F0001092C5008FEC8093C40080EC8093C00005
:1004000088E18093C1008EE08093C20008959091AE
:10041000C00095FFFCCF8093C60008958091C00076
:1004200087FFFCCF8091C6000895DF92EF92FF9284
:100430000F931F93CF93DF938C01D42FC0E0862FAF
:100440008150990B7C01CD1781F0D12C8D2D90E03E
:100450008E159F0544F4800F911FFC0180810E943E
:100460000702D394F3CFCF5FEECFDF91CF911F91EF
:100470000F91FF90EF90DF900895EF92FF920F930E
:100480001F93CF93DF9300D0CDB7DEB7792F162F10
:10049000042F2DB73EB73A832983462F50E0241B03
:1004A000350B0FB6F8943EBF0FBE2DBF2F5F3F4FE9
:1004B0007901682FC9010E94240D402F612FC701C7
:1004C0000E94150289819A810FB6F8949EBF0FBED3
:1004D0008DBF0F900F90DF91CF911F910F91FF90E3
:1004E000EF900895EF92FF920F931F93CF93DF93B6
:1004F00000D0CDB7DEB79A8389838B01F42EE22E2C
:1005000050E0CE0101960E94340D4E2D6F2DC80192
:100510000E943D020F900F90DF91CF911F910F919C
:10052000FF90EF90089510927C0086E880937A0007
:10053000089510927A00089580917C00807E8093C7
:100540007C0080917C006770682B60937C008091B8
:100550007A00806480937A0080917A0084FFFCCFD7
:1005600080917A00806180937A0020917800809158
:10057000790090E0982F8827820F911D0895F894B4
:10058000E8E6F0E0808184608083EDE6F0E0808141
:100590008C6F80837894089580EE87B988B9089528
:1005A0008CE187B988B908950F931F93CF93DF9398
:1005B000CDB7DEB7A6970FB6F894DEBF0FBECDBF9E
:1005C0008BE0E1E0F1E0DE015C9601900D928A950E
:1005D000E1F72BE1ECE0F1E0CE010196DC010190C6
:1005E0000D922A95E1F78C01329B18C00E94D0022F
:1005F000359B53C03599FECF41E06BE0CE014C9660
:100600000E94150284E30E94070241E06BE1C801E9
:100610000E9415020E94CC020E94BF02339B18C0A8
:100620000E94D002359B51C03599FECF41E06BE06E
:10063000CE014C960E94150282E30E94070241E01F
:100640006BE1C8010E9415020E94CC020E94BF0209
:10065000349B18C00E94D002359B50C03599FECF04
:1006600041E06BE0CE014C960E94150281E30E94AE
:10067000070241E06BE1C8010E9415020E94CC0212
:100680000E94BF02A6960FB6F894DEBF0FBECDBF84
:10069000DF91CF911F910F910895369B0AC0369933
:1006A000FECF41E06BE0CE014C960E94150283E440
:1006B000AACF379BB3CF3799FECF41E06BE0CE0195
:1006C0004C960E94150283E29ECF369B0AC0369953
:1006D000FECF41E06BE0CE014C960E94150286E50C
:1006E000ACCF379BB5CF3799FECF109A41E06BE086
:1006F000CE014C960E94150285E49FCF369B0AC01E
:100700003699FECF41E06BE0CE014C960E94150277
:1007100082E5ADCF379BB6CF3799FECF109841E039
:100720006BE0CE014C960E94150289E4A0CFEF92B7
:10073000FF920F931F93CF93DF9300D000D00F92BF
:10074000CDB7DEB7CE0101960E94930261E0CE01E3
:1007500001960E949C029C0150E040E02A833B836A
:100760004C835D83CA01B9010E94930720E030ECFD
:100770004FE754E46A837B838C839D836A817B810A
:100780008C819D810E94210720E030E040E950E407
:100790006A837B838C839D836A817B818C819D812D
:1007A0000E94210829E73FEA46E95FEB6A837B83E1
:1007B0008C839D836A817B818C819D810E948E08C0
:1007C0007B018C01CE0101960E94990226E539EC4D
:1007D00045EE51E4EA82FB820C831D836A817B81B2
:1007E0008C819D810E9421086A837B838C839D83F9
:1007F0006A817B818C819D810F900F900F900F906B
:100800000F90DF91CF911F910F91FF90EF9008957E
:10081000AF92BF92CF92DF92EF92FF920F931F930E
:10082000CF93DF9300D000D00F92CDB7DEB725B1C4
:100830002C6125B98FEC97E00197F1F700C000001B
:10084000F3B095B1986195B92A988FEC97E001972C
:10085000F1F700C00000A3B095B1946195B92B9851
:100860008FEC97E00197F1F700C00000B3B02C9A2D
:1008700095B1937F95B98FEC97E00197F1F700C0A0
:100880000000C3B095B19C6095B92C988FEC97E0AF
:100890000197F1F700C00000D3B02B9A95B19B7E71
:1008A00095B98FEC97E00197F1F700C00000E3B035
:1008B0002A9A95B1977E95B98FEC97E00197F1F759
:1008C00000C0000093B19D8325B1237E25B98FEC34
:1008D00097E00197F1F700C0000093B19983A1FA66
:1008E000882780F990E0880F991FB1FA002700F956
:1008F00010E0000F111F000F111F802BF1FA992734
:1009000090F9892BC1FAAA27A0F9B0E043E0AA0F19
:10091000BB1F4A95E1F78A2BD1FAEE27E0F9F0E008
:1009200054E0EE0FFF1F5A95E1F78E2BE1FA662790
:1009300060F970E0E5E0660F771FEA95E1F7862B36
:100940004D814695417050E0F6E0440F551FFA95F1
:10095000E1F7842B29812695217030E03695322FDE
:10096000222737952795822B282F30E050E040E052
:1009700029833A834B835C83CA01B9010E949307A0
:1009800020E030E04FE753E469837A838B839C83D4
:1009900069817A818B819C810E94210720E030E06F
:1009A00040E950E469837A838B839C8369817A81EF
:1009B0008B819C810E94210829E73FEA46E95FEB91
:1009C00069837A838B839C8369817A818B819C8103
:1009D0000E948E0826E539EC45EE51E469837A835E
:1009E0008B839C8369817A818B819C810E94210801
:1009F00069837A838B839C8369817A818B819C81D3
:100A00000F900F900F900F900F90DF91CF911F914B
:100A10000F91FF90EF90DF90CF90BF90AF9008952F
:100A200000990C9408040C94970381B1806F81B9EC
:100A300084B1806E84B987B1836087B9579A08956D
:100A400088B18C7F88B92F9A85B18F7985B95F9AE3
:100A5000089592B180EA82B982B1892B82B92D9A28
:100A600085B18F7985B988B18C7F88B982B18F754E
:100A700082B992B180EB82B982B1892B82B92E9A68
:100A800085B18F7985B988B18C7F88B982B18F742F
:100A900082B992B180EC82B982B1892B82B9409A35
:100AA00088B18C7F88B985B18F7985B982B18F7310
:100AB00082B992B180ED82B982B1892B82B9419A13
:100AC00088B18C7F88B985B18F7985B982B18F72F1
:100AD00082B982B18F7082B9089592B19F708111ED
:100AE00005C012B882B1982B92B90895813019F4DB
:100AF00080E182B9F7CF823011F480E2FACF8330FF
:100B000011F480E3F6CF843011F480E4F2CF853025
:100B100011F480E5EECF863011F480E6EACF87301D
:100B200011F480E7E6CF883011F480E8E2CF893015
:100B300011F480E9DECF8A3011F480EADACF8B300D
:100B400011F480EBD6CF8C3011F480ECD2CF8D3005
:100B500011F480EDCECF8E3011F480EECACF8F30FD
:100B600021F680EFC6CF662331F06AE00E94ED06E1
:100B7000892F90E008958F70FCCF662349F02AE01A
:100B8000622F0E94ED060E94ED06892F90E00895E5
:100B9000807F90E024E0959587952A95E1F7089568
:100BA00024E6829FC00111246EEF70E00E94F906D6
:100BB000CB010895FF920F931F93CF93DF93162FCE
:100BC000042FD22F24E6829FC00111246EEF70E023
:100BD0000E94F906C62FF62E642F8C2F0E94BD05A9
:100BE000382FCF708C2F002329F08F2D6AE00E94C0
:100BF000ED06892FC82F111118C02F98D11113C0DD
:100C00005F9A80E03111832F0E946D052D9A2D98F7
:100C10008C2F0E946D052E9A2E98DF91CF911F91F7
:100C20000F91FF9008955F98ECCF1130B1F7D1117B
:100C30000FC05F982F9A80E03111832F0E946D05BD
:100C4000409A40988C2F0E946D05419A4198E5CFBB
:100C50002F985F98F0CFCDB7DEB72E970FB6F894E8
:100C6000DEBF0FBECDBF0E9493010E94BF02882449
:100C70008394912CCE0101966C015E0198E0A90E3F
:100C8000B11C8091280190912901009709F46FC04F
:100C900081309105D1F782B1837F82B90E9410051E
:100CA000860124E04AE06B877C878D879E876B8571
:100CB0007C858D859E850E94800A7E0192E0E90EEA
:100CC000F11C87013601F80181918F010E94070212
:100CD0000A151B05C1F7129A0E941005830124E032
:100CE0004AE06B877C878D879E876B857C858D85A9
:100CF0009E850E94800A8701F80181918F010E94E0
:100D000007020A151B05C1F71298139A0E941005D5
:100D1000830124E04AE06B877C878D879E876B8503
:100D20007C858D859E850E94800AF70181917F01D7
:100D30000E940702EA14FB04C1F70E9415054091C6
:100D4000000120E060E08AE90E94DA05409100019C
:100D500021E061E08AE90E94DA05FFEF20E782E006
:100D6000F15020408040E1F700C000008ACF0E948F
:100D70002905EFEFF3ED20E3E150F0402040E1F7EB
:100D800000C000000E9420058BB188648BB96EEF13
:100D900070E08EEF90E00E949F018FEF99E6E8E10E
:100DA00081509040E040E1F700C000008BB1877BAC
:100DB0008BB9FFEF29E688E1F15020408040E1F750
:100DC00000C000008BB18F7C8BB98AB18F7C8AB94F
:100DD000909229018092280154CF991B79E004C098
:100DE000991F961708F0961B881F7A95C9F780956A
:100DF000089597FB072E16F4009407D077FD09D0CD
:100E00000E940D0707FC05D03EF4909581959F4FF9
:100E10000895709561957F4F0895AA1BBB1B51E102
:100E200007C0AA1FBB1FA617B70710F0A61BB70B5A
:100E3000881F991F5A95A9F780959095BC01CD01FF
:100E400008950E9435070C94E7070E94E00758F0C8
:100E50000E94D90740F029F45F3F29F00C94D00795
:100E600051110C941B080C94D6070E94F80768F3E4
:100E70009923B1F3552391F3951B550BBB27AA2753
:100E800062177307840738F09F5F5F4F220F331F8D
:100E9000441FAA1FA9F335D00E2E3AF0E0E832D055
:100EA00091505040E695001CCAF72BD0FE2F29D058
:100EB000660F771F881FBB1F261737074807AB072A
:100EC000B0E809F0BB0B802DBF01FF2793585F4F9F
:100ED0003AF09E3F510578F00C94D0070C941B0813
:100EE0005F3FE4F3983ED4F3869577956795B79581
:100EF000F7959F5FC9F7880F911D9695879597F98C
:100F00000895E1E0660F771F881FBB1F6217730704
:100F10008407BA0720F0621B730B840BBA0BEE1F19
:100F200088F7E0950895E89409C097FB3EF4909502
:100F30008095709561957F4F8F4F9F4F9923A9F0B2
:100F4000F92F96E9BB279395F69587957795679541
:100F5000B795F111F8CFFAF4BB0F11F460FF1BC085
:100F60006F5F7F4F8F4F9F4F16C0882311F096E918
:100F700011C0772321F09EE8872F762F05C06623C6
:100F800071F096E8862F70E060E02AF09A95660F7F
:100F9000771F881FDAF7880F9695879597F9089538
:100FA00097F99F6780E870E060E008959FEF80EC1C
:100FB000089500240A9416161706180609060895BF
:100FC00000240A9412161306140605060895092E25
:100FD0000394000C11F4882352F0BB0F40F4BF2B94
:100FE00011F460FF04C06F5F7F4F8F4F9F4F0895D4
:100FF00057FD9058440F551F59F05F3F71F04795CA
:10100000880F97FB991F61F09F3F79F087950895AE
:10101000121613061406551FF2CF4695F1DF08C0CD
:10102000161617061806991FF1CF869571056105EA
:1010300008940895E894BB2766277727CB0197F992
:1010400008950E9434080C94E7070E94D90738F0ED
:101050000E94E00720F0952311F00C94D0070C9427
:10106000D60711240C941B080E94F80770F3959F73
:10107000C1F3950F50E0551F629FF001729FBB278F
:10108000F00DB11D639FAA27F00DB11DAA1F649F2B
:101090006627B00DA11D661F829F2227B00DA11DDE
:1010A000621F739FB00DA11D621F839FA00D611D64
:1010B000221F749F3327A00D611D231F849F600D85
:1010C000211D822F762F6A2F11249F5750409AF0AE
:1010D000F1F088234AF0EE0FFF1FBB1F661F771F3A
:1010E000881F91505040A9F79E3F510580F00C9405
:1010F000D0070C941B085F3FE4F3983ED4F3869529
:1011000077956795B795F795E7959F5FC1F7FE2BA4
:10111000880F911D9695879597F90895FA01EE0F1E
:10112000FF1F309621053105A1F16115710561F4AC
:101130008038BFE39B0749F168949038810561F0DE
:101140008038BFEF9B0741F099234AF5FF3FE10547
:101150003105210519F1E8940894E795D901AA23EE
:1011600029F4AB2FBE2FF85FD0F310C0FF5F70F4EF
:10117000A695E0F7F73950F019F0FF3A38F49F7769
:101180009F930DD00F9007FC9058089546F00C9453
:10119000D60760E070E080E89FE308954FE79F770F
:1011A0005F934F933F932F930E9489092F913F9113
:1011B0004F915F910E9421080C94E60829F416F0E3
:1011C0000C94D0070C941A080C94D6070E940008BF
:1011D000A8F39638A0F707F80F92E8942BE33AEAC1
:1011E00048EB5FE70E9437080F920F920F924DB7BE
:1011F0005EB70F920E94D109ECE7F0E00E94180957
:101200004F915F91EF91FF91E595EE1FFF1F49F020
:10121000FE57E0684427EE0F441FFA95E1F7419529
:10122000550B0E944B090F9007FE0C943F0908953F
:10123000DF93CF931F930F93FF92EF92DF927B0187
:101240008C01689406C0DA2EEF010E943408FE017A
:10125000E894A5912591359145915591A6F3EF011B
:101260000E941D0AFE019701A801DA9469F7DF9038
:10127000EF90FF900F911F91CF91DF9108959B0107
:10128000AC0160E070E080E89FE30C9421070C94CF
:10129000D0070C94720A0E940008D8F39923C9F36E
:1012A000940F511DA3F39150504094F059F08823AE
:1012B00032F0660F771F881F91505040C1F79E3F54
:1012C00051052CF7880F911D9695879597F90895EC
:1012D0005F3FACF0983E9CF0BB278695779567956D
:1012E000B79508F4B1609395C1F7BB0F58F711F4A7
:1012F00060FFE8CF6F5F7F4F8F4F9F4FE3CF0C941E
:101300001B0816F00C94720A0C94D60768940C947F
:10131000D0070E940008A8F39923C1F3AEF3DF932E
:10132000CF931F930F93FF92C92FDD2788232AF0B5
:101330002197660F771F881FDAF720E030E040E83A
:101340005FEB9FE3883920F0803E38F021968F775D
:101350000E94060AE4EAF0E004C00E94060AE1EDF9
:10136000F0E00E9418098B01BE01EC01FB2E6F57C3
:1013700071097595771F880B990B0E94950728E1D5
:1013800032E741E35FE30E943408AF2D9801AE01DC
:10139000FF900F911F91CF91DF910E941D0A0C9435
:1013A000E707FA01DC01AA0FBB1F9B01AC01BF5785
:1013B00028F4222733274427507820C0B75190F4CF
:1013C000AB2F0024469537952795011CA395D2F3A2
:1013D000002071F0220F331F441FB395DAF30ED0B3
:1013E0000C94050A61307105A0E88A07B94630F40B
:1013F0009B01AC016627772788279078309621F0EB
:10140000208331834283538308955058BB27AA27F2
:101410000E941D0A0C94E7070E94D90738F00E9429
:10142000E00720F039F49F3F19F426F40C94D60716
:101430000EF4E095E7FB0C94D007E92F0E94F80723
:1014400058F3BA17620773078407950720F079F4F9
:10145000A6F50C941A080EF4E0950B2EBA2FA02DC9
:101460000B01B90190010C01CA01A0011124FF2751
:10147000591B99F0593F50F4503E68F11A16F0404C
:10148000A22F232F342F4427585FF3CF469537954B
:101490002795A795F0405395C9F77EF41F16BA0B10
:1014A000620B730B840BBAF09150A1F0FF0FBB1FBE
:1014B000661F771F881FC2F70EC0BA0F621F731F07
:1014C000841F48F4879577956795B795F7959E3F64
:1014D00008F0B0CF9395880F08F09927EE0F9795F5
:1014E000879508959F3F31F0915020F48795779527
:1014F0006795B795880F911D9695879597F90895EB
:10150000EF920F931F93CF93DF9300D000D00F92F1
:10151000CDB7DEB7322F0D8354E047FD54E1242FC1
:1015200027FD2195E52E032F4D81512F69837A8365
:101530008B839C8369817A818B819C810E94AD0A17
:101540008D81912F0F900F900F900F900F90DF9142
:10155000CF911F910F91EF9008956F927F929F927C
:10156000AF92BF92CF92DF92EF92FF920F931F93B1
:10157000CF93DF93CDB7DEB72D970FB6F894DEBFCC
:101580000FBECDBF6A01122FB02EFBE36F2E601687
:1015900008F40BE3FF24F394F00E0F2D27E0AE01C7
:1015A0004F5F5F4F6A877B878C879D876A857B85C6
:1015B0008C859D850E944C0CAC01A9808A2D897078
:1015C0003DE2813039F03BE2E1FC04C03E2D317058
:1015D000E0FC30E20E2D0071EA2DE870A3FE59C048
:1015E00083E0311184E08117A8F5181B002309F46A
:1015F0003FC0332319F0F60131936F01F6013396A2
:10160000E2FE3BC08EE4D6018C9391E411969C934C
:10161000119712968C93812F9E2F2F2F30E28111DC
:1016200031C0E10FF11D10828EEF9FEF2D960FB6A6
:10163000F894DEBF0FBECDBFDF91CF911F910F9108
:10164000FF90EF90DF90CF90BF90AF909F907F90F2
:101650006F90089510E0CACFE92FF22F4193815087
:101660009E2F2F2F8111F8CFC10ED11C10E0C1CFBA
:10167000812F9C2D2D2D40E2F5CF8EE6D6018C9347
:1016800091E6C4CFA92FB22F3D9381509A2F2B2FD3
:10169000C6CF2A2D2470A2FE47C083E0311184E01A
:1016A000811710F4E12FE81B002349F1332319F0CF
:1016B000D6013D936D01C6010396E2FE25C029E4E3
:1016C000D6012C932EE411962C93119726E41296B2
:1016D0002C932E2F382F492F50E221111EC0E80FD6
:1016E000F92FF11DA0CFA92FB22F4D9381509A2F22
:1016F0002B2F8111F8CFCE0ED11CE0E0D7CF8E2F4B
:101700009C2D2D2D40E2F5CF29E6D6012C932EE617
:1017100011962C93119726E6DACFA32FB42F5D9361
:1017200021503A2F4B2FD9CFBA0157FF02C070E09A
:1017300060E0E1E0F0E0311102C0F0E0E0E0CB0178
:101740000196E80FF91F8B2D90E0DC011196B11086
:1017500002C0B0E0A0E0EA0FFB1F1E171F0619F041
:1017600014F0212F2E1B011194C0D601E22FF0E2BC
:10177000E3FE51C0332329F0F60131936F010111CB
:1017800008C0F601322FA0E331114BC0C20ED11CAC
:1017900020E00F2D040F3A81FA2DF071BF2EA4FE28
:1017A00003C0313309F401501016F4F5093008F084
:1017B00008E0DB017A01E01AF10800271127081B75
:1017C000190BEEE29E2E4A175B0784F1EA16FB0620
:1017D0006CF5FA01EA1BFB0B66246394712C6C0E0A
:1017E0007D1EE60DF71DA18011973601EFEF6E1AF1
:1017F0007E0AA017B107ECF0F601A082AF3FBA074E
:1018000031F43601E2E06E0E711CF6019182630143
:10181000DACFFD93E150E111FCCFC20ED11C20E0E4
:10182000A9CFA1933150B0CF01E0C3CFE0E3AE2EFA
:10183000DBCF80959095861797070CF5861B970B45
:10184000019661507109860F971F4817590741F497
:10185000363320F4353321F4B11002C081E3A82ED1
:10186000D601AC92822F962D372D40E281110AC00D
:10187000F301E20FF11D108290E080E0D7CE90E0FE
:1018800080E0DFCFA92FB32F4D9381509A2F3B2FAC
:10189000EDCF311171CF7DCF283008F027E033270D
:1018A000DA01990F311D87FD916000966105710580
:1018B00039F432602E5F3D9330E32A95E1F70895C5
:1018C0009F3F30F080387105610509F03C5F3C5F57
:1018D0003D93913008F08068911DDF93CF931F9363
:1018E0000F93FF92EF92192F987F9695E92F969577
:1018F0009695E90FFF27E85AFE4F99273327EE24E4
:10190000FF24A701E70105900894079428F4360FF7
:10191000E71EF81E491F511D660F771F881F991F6C
:101920000694A1F70590079428F4E70EF81E491FC6
:10193000561FC11D770F881F991F661F0694A1F7B8
:101940000590079428F4F80E491F561FC71FD11D94
:10195000880F991F661F771F0694A1F705900794BB
:1019600020F4490F561FC71FD81F990F661F771FF6
:10197000881F0694A9F784911095177041F0D695A9
:10198000C79557954795F794E7941A95C1F7EEEFE9
:10199000F0E06894159015913591659195910590B9
:1019A0007FE27395E118F10A430B560BC90BD0097E
:1019B000C0F7E10CF11E431F561FC91FD01D7EF456
:1019C000703311F48A95E6CFE894015030F0080F97
:1019D0000AF40027021708F4202F2395022F7A33E8
:1019E00028F079E37D932A95E9F710C07D932A9535
:1019F00089F6069497956795379517951794E1188A
:101A0000F10A430B560BC90BD00998F023957E9130
:101A100073957A3308F070E37C932013B8F77E91C6
:101A200070617D9330F0839571E37D9370E32A9527
:101A3000E1F71124EF90FF900F911F91CF91DF916B
:101A4000992787FD90950895DC01CB01FC01F99958
:101A5000FECF06C0F2BDE1BDF89A319600B40D92FA
:101A600041505040B8F70895DC01CB0103C02D91DF
:101A70000E943F0D41505040D0F70895262FF9990C
:101A8000FECF1FBA92BD81BD20BD0FB6F894FA9A61
:0C1A9000F99A0FBE01960895F894FFCF5C
:101A9C00014C6520626F75746F6E20002064752098
:101AAC00636C617669657220612065746520617074
:081ABC00707579652E0A000027
:00000001FF
